{
  "_format": "hh-sol-artifact-1",
  "contractName": "Roulette",
  "sourceName": "contracts/Roulette.sol",
  "abi": [
    {
      "inputs": [
        {
          "internalType": "bytes32",
          "name": "keyHash",
          "type": "bytes32"
        },
        {
          "internalType": "uint256",
          "name": "subscriptionId",
          "type": "uint256"
        }
      ],
      "stateMutability": "nonpayable",
      "type": "constructor"
    },
    {
      "inputs": [],
      "name": "InvalidAmount",
      "type": "error"
    },
    {
      "inputs": [],
      "name": "InvalidNumber",
      "type": "error"
    },
    {
      "inputs": [],
      "name": "InvalidOperation",
      "type": "error"
    },
    {
      "inputs": [
        {
          "internalType": "address",
          "name": "have",
          "type": "address"
        },
        {
          "internalType": "address",
          "name": "want",
          "type": "address"
        }
      ],
      "name": "OnlyCoordinatorCanFulfill",
      "type": "error"
    },
    {
      "inputs": [
        {
          "internalType": "address",
          "name": "have",
          "type": "address"
        },
        {
          "internalType": "address",
          "name": "owner",
          "type": "address"
        },
        {
          "internalType": "address",
          "name": "coordinator",
          "type": "address"
        }
      ],
      "name": "OnlyOwnerOrCoordinator",
      "type": "error"
    },
    {
      "inputs": [],
      "name": "ZeroAddress",
      "type": "error"
    },
    {
      "anonymous": false,
      "inputs": [
        {
          "indexed": false,
          "internalType": "address",
          "name": "vrfCoordinator",
          "type": "address"
        }
      ],
      "name": "CoordinatorSet",
      "type": "event"
    },
    {
      "anonymous": false,
      "inputs": [
        {
          "indexed": true,
          "internalType": "address",
          "name": "from",
          "type": "address"
        },
        {
          "indexed": true,
          "internalType": "address",
          "name": "to",
          "type": "address"
        }
      ],
      "name": "OwnershipTransferRequested",
      "type": "event"
    },
    {
      "anonymous": false,
      "inputs": [
        {
          "indexed": true,
          "internalType": "address",
          "name": "from",
          "type": "address"
        },
        {
          "indexed": true,
          "internalType": "address",
          "name": "to",
          "type": "address"
        }
      ],
      "name": "OwnershipTransferred",
      "type": "event"
    },
    {
      "inputs": [],
      "name": "acceptOwnership",
      "outputs": [],
      "stateMutability": "nonpayable",
      "type": "function"
    },
    {
      "inputs": [
        {
          "internalType": "uint256",
          "name": "number",
          "type": "uint256"
        },
        {
          "internalType": "uint256",
          "name": "amount",
          "type": "uint256"
        }
      ],
      "name": "betOnNumber",
      "outputs": [],
      "stateMutability": "payable",
      "type": "function"
    },
    {
      "inputs": [
        {
          "internalType": "uint256",
          "name": "",
          "type": "uint256"
        },
        {
          "internalType": "address",
          "name": "",
          "type": "address"
        }
      ],
      "name": "bets",
      "outputs": [
        {
          "internalType": "uint256",
          "name": "",
          "type": "uint256"
        }
      ],
      "stateMutability": "view",
      "type": "function"
    },
    {
      "inputs": [
        {
          "internalType": "uint256",
          "name": "",
          "type": "uint256"
        },
        {
          "internalType": "uint256",
          "name": "",
          "type": "uint256"
        }
      ],
      "name": "bettors",
      "outputs": [
        {
          "internalType": "address",
          "name": "",
          "type": "address"
        }
      ],
      "stateMutability": "view",
      "type": "function"
    },
    {
      "inputs": [],
      "name": "concludeGame",
      "outputs": [],
      "stateMutability": "nonpayable",
      "type": "function"
    },
    {
      "inputs": [
        {
          "internalType": "uint256",
          "name": "amount",
          "type": "uint256"
        }
      ],
      "name": "fundContractWithLink",
      "outputs": [],
      "stateMutability": "nonpayable",
      "type": "function"
    },
    {
      "inputs": [],
      "name": "getContractBalance",
      "outputs": [
        {
          "internalType": "uint256",
          "name": "",
          "type": "uint256"
        }
      ],
      "stateMutability": "view",
      "type": "function"
    },
    {
      "inputs": [],
      "name": "getContractBalanceInLink",
      "outputs": [
        {
          "internalType": "uint256",
          "name": "",
          "type": "uint256"
        }
      ],
      "stateMutability": "view",
      "type": "function"
    },
    {
      "inputs": [],
      "name": "getNumber",
      "outputs": [
        {
          "internalType": "uint256",
          "name": "requestId",
          "type": "uint256"
        }
      ],
      "stateMutability": "nonpayable",
      "type": "function"
    },
    {
      "inputs": [],
      "name": "owner",
      "outputs": [
        {
          "internalType": "address",
          "name": "",
          "type": "address"
        }
      ],
      "stateMutability": "view",
      "type": "function"
    },
    {
      "inputs": [
        {
          "internalType": "uint256",
          "name": "requestId",
          "type": "uint256"
        },
        {
          "internalType": "uint256[]",
          "name": "randomWords",
          "type": "uint256[]"
        }
      ],
      "name": "rawFulfillRandomWords",
      "outputs": [],
      "stateMutability": "nonpayable",
      "type": "function"
    },
    {
      "inputs": [],
      "name": "s_vrfCoordinator",
      "outputs": [
        {
          "internalType": "contract IVRFCoordinatorV2Plus",
          "name": "",
          "type": "address"
        }
      ],
      "stateMutability": "view",
      "type": "function"
    },
    {
      "inputs": [
        {
          "internalType": "address",
          "name": "_vrfCoordinator",
          "type": "address"
        }
      ],
      "name": "setCoordinator",
      "outputs": [],
      "stateMutability": "nonpayable",
      "type": "function"
    },
    {
      "inputs": [],
      "name": "token_LINK",
      "outputs": [
        {
          "internalType": "contract IERC20",
          "name": "",
          "type": "address"
        }
      ],
      "stateMutability": "view",
      "type": "function"
    },
    {
      "inputs": [
        {
          "internalType": "address",
          "name": "to",
          "type": "address"
        }
      ],
      "name": "transferOwnership",
      "outputs": [],
      "stateMutability": "nonpayable",
      "type": "function"
    },
    {
      "inputs": [],
      "name": "winningNumber",
      "outputs": [
        {
          "internalType": "uint256",
          "name": "",
          "type": "uint256"
        }
      ],
      "stateMutability": "view",
      "type": "function"
    },
    {
      "stateMutability": "payable",
      "type": "receive"
    }
  ],
  "bytecode": "0x608060405273779877a7b0d9e8603169ddbd7836e478b4624789600360006101000a81548173ffffffffffffffffffffffffffffffffffffffff021916908373ffffffffffffffffffffffffffffffffffffffff160217905550739ddfaca8183c41ad55329bdeed9f6a8d53168b1b600460006101000a81548173ffffffffffffffffffffffffffffffffffffffff021916908373ffffffffffffffffffffffffffffffffffffffff1602179055506003600760006101000a81548161ffff021916908361ffff1602179055506207a120600760026101000a81548163ffffffff021916908363ffffffff1602179055506001600760066101000a81548163ffffffff021916908363ffffffff16021790555034801561011e57600080fd5b506040516126cd3803806126cd833981810160405281019061014091906104b6565b600460009054906101000a900473ffffffffffffffffffffffffffffffffffffffff16338060008073ffffffffffffffffffffffffffffffffffffffff168273ffffffffffffffffffffffffffffffffffffffff16036101d5576040517f08c379a00000000000000000000000000000000000000000000000000000000081526004016101cc90610553565b60405180910390fd5b816000806101000a81548173ffffffffffffffffffffffffffffffffffffffff021916908373ffffffffffffffffffffffffffffffffffffffff160217905550600073ffffffffffffffffffffffffffffffffffffffff168173ffffffffffffffffffffffffffffffffffffffff1614610259576102588161031960201b60201c565b5b505050600073ffffffffffffffffffffffffffffffffffffffff168173ffffffffffffffffffffffffffffffffffffffff16036102c2576040517fd92e233d00000000000000000000000000000000000000000000000000000000815260040160405180910390fd5b80600260006101000a81548173ffffffffffffffffffffffffffffffffffffffff021916908373ffffffffffffffffffffffffffffffffffffffff16021790555050816005819055508060068190555050506105df565b3373ffffffffffffffffffffffffffffffffffffffff168173ffffffffffffffffffffffffffffffffffffffff1603610387576040517f08c379a000000000000000000000000000000000000000000000000000000000815260040161037e906105bf565b60405180910390fd5b80600160006101000a81548173ffffffffffffffffffffffffffffffffffffffff021916908373ffffffffffffffffffffffffffffffffffffffff1602179055508073ffffffffffffffffffffffffffffffffffffffff1660008054906101000a900473ffffffffffffffffffffffffffffffffffffffff1673ffffffffffffffffffffffffffffffffffffffff167fed8889f560326eb138920d842192f0eb3dd22b4f139c87a2c57538e05bae127860405160405180910390a350565b600080fd5b6000819050919050565b61045d8161044a565b811461046857600080fd5b50565b60008151905061047a81610454565b92915050565b6000819050919050565b61049381610480565b811461049e57600080fd5b50565b6000815190506104b08161048a565b92915050565b600080604083850312156104cd576104cc610445565b5b60006104db8582860161046b565b92505060206104ec858286016104a1565b9150509250929050565b600082825260208201905092915050565b7f43616e6e6f7420736574206f776e657220746f207a65726f0000000000000000600082015250565b600061053d6018836104f6565b915061054882610507565b602082019050919050565b6000602082019050818103600083015261056c81610530565b9050919050565b7f43616e6e6f74207472616e7366657220746f2073656c66000000000000000000600082015250565b60006105a96017836104f6565b91506105b482610573565b602082019050919050565b600060208201905081810360008301526105d88161059c565b9050919050565b6120df806105ee6000396000f3fe6080604052600436106100f75760003560e01c80638da5cb5b1161008a578063f175f70111610059578063f175f701146102de578063f2c9ecd814610307578063f2fde38b14610332578063f644b3bb1461035b576100fe565b80638da5cb5b146102345780638ea981171461025f5780639eccacf6146102885780639ef5abaa146102b3576100fe565b80636f9fb98a116100c65780636f9fb98a1461019e578063795da71d146101c957806379ba5097146101e05780637b049910146101f7576100fe565b806309d72cd5146101035780631fe543e31461012e5780633d5b60d6146101575780634664611e14610173576100fe565b366100fe57005b600080fd5b34801561010f57600080fd5b50610118610398565b6040516101259190611729565b60405180910390f35b34801561013a57600080fd5b50610155600480360381019061015091906117e9565b6103be565b005b610171600480360381019061016c9190611849565b610484565b005b34801561017f57600080fd5b5061018861072c565b6040516101959190611898565b60405180910390f35b3480156101aa57600080fd5b506101b3610732565b6040516101c09190611898565b60405180910390f35b3480156101d557600080fd5b506101de610742565b005b3480156101ec57600080fd5b506101f561076a565b005b34801561020357600080fd5b5061021e60048036038101906102199190611849565b6108ff565b60405161022b91906118d4565b60405180910390f35b34801561024057600080fd5b5061024961094d565b60405161025691906118d4565b60405180910390f35b34801561026b57600080fd5b506102866004803603810190610281919061191b565b610976565b005b34801561029457600080fd5b5061029d610b57565b6040516102aa9190611969565b60405180910390f35b3480156102bf57600080fd5b506102c8610b7d565b6040516102d59190611898565b60405180910390f35b3480156102ea57600080fd5b5061030560048036038101906103009190611984565b610c28565b005b34801561031357600080fd5b5061031c610d14565b6040516103299190611898565b60405180910390f35b34801561033e57600080fd5b506103596004803603810190610354919061191b565b610e4e565b005b34801561036757600080fd5b50610382600480360381019061037d91906119b1565b610e62565b60405161038f9190611898565b60405180910390f35b600360009054906101000a900473ffffffffffffffffffffffffffffffffffffffff1681565b600260009054906101000a900473ffffffffffffffffffffffffffffffffffffffff1673ffffffffffffffffffffffffffffffffffffffff163373ffffffffffffffffffffffffffffffffffffffff16146104745733600260009054906101000a900473ffffffffffffffffffffffffffffffffffffffff166040517f1cf993f400000000000000000000000000000000000000000000000000000000815260040161046b9291906119f1565b60405180910390fd5b61047f838383610e87565b505050565b6000821080610494575060258210155b156104cb576040517f74cbd35f00000000000000000000000000000000000000000000000000000000815260040160405180910390fd5b600081111580156104dc5750600681115b15610513576040517f2c5211c600000000000000000000000000000000000000000000000000000000815260040160405180910390fd5b600360009054906101000a900473ffffffffffffffffffffffffffffffffffffffff1673ffffffffffffffffffffffffffffffffffffffff166323b872dd3330846040518463ffffffff1660e01b815260040161057293929190611a1a565b6020604051808303816000875af1158015610591573d6000803e3d6000fd5b505050506040513d601f19601f820116820180604052508101906105b59190611a89565b6105f4576040517f08c379a00000000000000000000000000000000000000000000000000000000081526004016105eb90611b13565b60405180910390fd5b60006009600084815260200190815260200160002060003373ffffffffffffffffffffffffffffffffffffffff1673ffffffffffffffffffffffffffffffffffffffff16815260200190815260200160002054036106c157600a6000838152602001908152602001600020339080600181540180825580915050600190039060005260206000200160009091909190916101000a81548173ffffffffffffffffffffffffffffffffffffffff021916908373ffffffffffffffffffffffffffffffffffffffff1602179055505b806009600084815260200190815260200160002060003373ffffffffffffffffffffffffffffffffffffffff1673ffffffffffffffffffffffffffffffffffffffff16815260200190815260200160002060008282546107219190611b62565b925050819055505050565b60085481565b600061073c610eb9565b47905090565b61074a610eb9565b6000610754610f49565b905061075f816111c8565b610767611348565b50565b600160009054906101000a900473ffffffffffffffffffffffffffffffffffffffff1673ffffffffffffffffffffffffffffffffffffffff163373ffffffffffffffffffffffffffffffffffffffff16146107fa576040517f08c379a00000000000000000000000000000000000000000000000000000000081526004016107f190611be2565b60405180910390fd5b60008060009054906101000a900473ffffffffffffffffffffffffffffffffffffffff169050336000806101000a81548173ffffffffffffffffffffffffffffffffffffffff021916908373ffffffffffffffffffffffffffffffffffffffff1602179055506000600160006101000a81548173ffffffffffffffffffffffffffffffffffffffff021916908373ffffffffffffffffffffffffffffffffffffffff1602179055503373ffffffffffffffffffffffffffffffffffffffff168173ffffffffffffffffffffffffffffffffffffffff167f8be0079c531659141344cd1fd0a4f28419497f9722a3daafe3b4186f6b6457e060405160405180910390a350565b600a602052816000526040600020818154811061091b57600080fd5b906000526020600020016000915091509054906101000a900473ffffffffffffffffffffffffffffffffffffffff1681565b60008060009054906101000a900473ffffffffffffffffffffffffffffffffffffffff16905090565b61097e61094d565b73ffffffffffffffffffffffffffffffffffffffff163373ffffffffffffffffffffffffffffffffffffffff1614158015610a075750600260009054906101000a900473ffffffffffffffffffffffffffffffffffffffff1673ffffffffffffffffffffffffffffffffffffffff163373ffffffffffffffffffffffffffffffffffffffff1614155b15610a765733610a1561094d565b600260009054906101000a900473ffffffffffffffffffffffffffffffffffffffff166040517f061db9c1000000000000000000000000000000000000000000000000000000008152600401610a6d93929190611c02565b60405180910390fd5b600073ffffffffffffffffffffffffffffffffffffffff168173ffffffffffffffffffffffffffffffffffffffff1603610adc576040517fd92e233d00000000000000000000000000000000000000000000000000000000815260040160405180910390fd5b80600260006101000a81548173ffffffffffffffffffffffffffffffffffffffff021916908373ffffffffffffffffffffffffffffffffffffffff1602179055507fd1a6a14209a385a964d036e404cb5cfb71f4000cdb03c9366292430787261be681604051610b4c91906118d4565b60405180910390a150565b600260009054906101000a900473ffffffffffffffffffffffffffffffffffffffff1681565b6000610b87610eb9565b600360009054906101000a900473ffffffffffffffffffffffffffffffffffffffff1673ffffffffffffffffffffffffffffffffffffffff166370a08231306040518263ffffffff1660e01b8152600401610be291906118d4565b602060405180830381865afa158015610bff573d6000803e3d6000fd5b505050506040513d601f19601f82011682018060405250810190610c239190611c4e565b905090565b610c30610eb9565b600360009054906101000a900473ffffffffffffffffffffffffffffffffffffffff1673ffffffffffffffffffffffffffffffffffffffff166323b872dd3330846040518463ffffffff1660e01b8152600401610c8f93929190611a1a565b6020604051808303816000875af1158015610cae573d6000803e3d6000fd5b505050506040513d601f19601f82011682018060405250810190610cd29190611a89565b610d11576040517f08c379a0000000000000000000000000000000000000000000000000000000008152600401610d0890611b13565b60405180910390fd5b50565b6000610d1e610eb9565b600260009054906101000a900473ffffffffffffffffffffffffffffffffffffffff1673ffffffffffffffffffffffffffffffffffffffff16639b1c385e6040518060c0016040528060055481526020016006548152602001600760009054906101000a900461ffff1661ffff168152602001600760029054906101000a900463ffffffff1663ffffffff168152602001600760069054906101000a900463ffffffff1663ffffffff168152602001610de76040518060200160405280600015158152506114a8565b8152506040518263ffffffff1660e01b8152600401610e069190611df8565b6020604051808303816000875af1158015610e25573d6000803e3d6000fd5b505050506040513d601f19601f82011682018060405250810190610e499190611c4e565b905090565b610e56610eb9565b610e5f81611540565b50565b6009602052816000526040600020602052806000526040600020600091509150505481565b602582826000818110610e9d57610e9c611e1a565b5b90506020020135610eae9190611e78565b600881905550505050565b60008054906101000a900473ffffffffffffffffffffffffffffffffffffffff1673ffffffffffffffffffffffffffffffffffffffff163373ffffffffffffffffffffffffffffffffffffffff1614610f47576040517f08c379a0000000000000000000000000000000000000000000000000000000008152600401610f3e90611ef5565b60405180910390fd5b565b60606000600a600060085481526020019081526020016000208054905067ffffffffffffffff811115610f7f57610f7e611f15565b5b604051908082528060200260200182016040528015610fad5781602001602082028036833780820191505090505b5090506000805b600a60006008548152602001908152602001600020805490508110156110f0576000600a600060085481526020019081526020016000208281548110610ffd57610ffc611e1a565b5b9060005260206000200160009054906101000a900473ffffffffffffffffffffffffffffffffffffffff169050600060096000600854815260200190815260200160002060008373ffffffffffffffffffffffffffffffffffffffff1673ffffffffffffffffffffffffffffffffffffffff1681526020019081526020016000205411156110e2578084848151811061109957611098611e1a565b5b602002602001019073ffffffffffffffffffffffffffffffffffffffff16908173ffffffffffffffffffffffffffffffffffffffff168152505082806110de90611f44565b9350505b508080600101915050610fb4565b5060008167ffffffffffffffff81111561110d5761110c611f15565b5b60405190808252806020026020018201604052801561113b5781602001602082028036833780820191505090505b50905060005b828110156111be5783818151811061115c5761115b611e1a565b5b602002602001015182828151811061117757611176611e1a565b5b602002602001019073ffffffffffffffffffffffffffffffffffffffff16908173ffffffffffffffffffffffffffffffffffffffff16815250508080600101915050611141565b5080935050505090565b60005b81518110156113445760008282815181106111e9576111e8611e1a565b5b602002602001015190506000600560096000600854815260200190815260200160002060008473ffffffffffffffffffffffffffffffffffffffff1673ffffffffffffffffffffffffffffffffffffffff168152602001908152602001600020546112549190611f8c565b9050600360009054906101000a900473ffffffffffffffffffffffffffffffffffffffff1673ffffffffffffffffffffffffffffffffffffffff1663a9059cbb83836040518363ffffffff1660e01b81526004016112b3929190611fce565b6020604051808303816000875af11580156112d2573d6000803e3d6000fd5b505050506040513d601f19601f820116820180604052508101906112f69190611a89565b611335576040517f08c379a000000000000000000000000000000000000000000000000000000000815260040161132c90611b13565b60405180910390fd5b505080806001019150506111cb565b5050565b60005b60248110156114a5576000600a60008381526020019081526020016000208054806020026020016040519081016040528092919081815260200182805480156113e957602002820191906000526020600020905b8160009054906101000a900473ffffffffffffffffffffffffffffffffffffffff1673ffffffffffffffffffffffffffffffffffffffff168152602001906001019080831161139f575b5050505050905060005b81518110156114775760096000848152602001908152602001600020600083838151811061142457611423611e1a565b5b602002602001015173ffffffffffffffffffffffffffffffffffffffff1673ffffffffffffffffffffffffffffffffffffffff1681526020019081526020016000206000905580806001019150506113f3565b50600a60008381526020019081526020016000206000611497919061166c565b50808060010191505061134b565b50565b60607f92fd13387c7fe7befbc38d303d6468778fb9731bc4583f17d92989c6fcfdeaaa826040516024016114dc9190612022565b604051602081830303815290604052907bffffffffffffffffffffffffffffffffffffffffffffffffffffffff19166020820180517bffffffffffffffffffffffffffffffffffffffffffffffffffffffff83818316178352505050509050919050565b3373ffffffffffffffffffffffffffffffffffffffff168173ffffffffffffffffffffffffffffffffffffffff16036115ae576040517f08c379a00000000000000000000000000000000000000000000000000000000081526004016115a590612089565b60405180910390fd5b80600160006101000a81548173ffffffffffffffffffffffffffffffffffffffff021916908373ffffffffffffffffffffffffffffffffffffffff1602179055508073ffffffffffffffffffffffffffffffffffffffff1660008054906101000a900473ffffffffffffffffffffffffffffffffffffffff1673ffffffffffffffffffffffffffffffffffffffff167fed8889f560326eb138920d842192f0eb3dd22b4f139c87a2c57538e05bae127860405160405180910390a350565b508054600082559060005260206000209081019061168a919061168d565b50565b5b808211156116a657600081600090555060010161168e565b5090565b600073ffffffffffffffffffffffffffffffffffffffff82169050919050565b6000819050919050565b60006116ef6116ea6116e5846116aa565b6116ca565b6116aa565b9050919050565b6000611701826116d4565b9050919050565b6000611713826116f6565b9050919050565b61172381611708565b82525050565b600060208201905061173e600083018461171a565b92915050565b600080fd5b600080fd5b6000819050919050565b6117618161174e565b811461176c57600080fd5b50565b60008135905061177e81611758565b92915050565b600080fd5b600080fd5b600080fd5b60008083601f8401126117a9576117a8611784565b5b8235905067ffffffffffffffff8111156117c6576117c5611789565b5b6020830191508360208202830111156117e2576117e161178e565b5b9250929050565b60008060006040848603121561180257611801611744565b5b60006118108682870161176f565b935050602084013567ffffffffffffffff81111561183157611830611749565b5b61183d86828701611793565b92509250509250925092565b600080604083850312156118605761185f611744565b5b600061186e8582860161176f565b925050602061187f8582860161176f565b9150509250929050565b6118928161174e565b82525050565b60006020820190506118ad6000830184611889565b92915050565b60006118be826116aa565b9050919050565b6118ce816118b3565b82525050565b60006020820190506118e960008301846118c5565b92915050565b6118f8816118b3565b811461190357600080fd5b50565b600081359050611915816118ef565b92915050565b60006020828403121561193157611930611744565b5b600061193f84828501611906565b91505092915050565b6000611953826116f6565b9050919050565b61196381611948565b82525050565b600060208201905061197e600083018461195a565b92915050565b60006020828403121561199a57611999611744565b5b60006119a88482850161176f565b91505092915050565b600080604083850312156119c8576119c7611744565b5b60006119d68582860161176f565b92505060206119e785828601611906565b9150509250929050565b6000604082019050611a0660008301856118c5565b611a1360208301846118c5565b9392505050565b6000606082019050611a2f60008301866118c5565b611a3c60208301856118c5565b611a496040830184611889565b949350505050565b60008115159050919050565b611a6681611a51565b8114611a7157600080fd5b50565b600081519050611a8381611a5d565b92915050565b600060208284031215611a9f57611a9e611744565b5b6000611aad84828501611a74565b91505092915050565b600082825260208201905092915050565b7f4c494e4b205472616e73666572206661696c6564000000000000000000000000600082015250565b6000611afd601483611ab6565b9150611b0882611ac7565b602082019050919050565b60006020820190508181036000830152611b2c81611af0565b9050919050565b7f4e487b7100000000000000000000000000000000000000000000000000000000600052601160045260246000fd5b6000611b6d8261174e565b9150611b788361174e565b9250828201905080821115611b9057611b8f611b33565b5b92915050565b7f4d7573742062652070726f706f736564206f776e657200000000000000000000600082015250565b6000611bcc601683611ab6565b9150611bd782611b96565b602082019050919050565b60006020820190508181036000830152611bfb81611bbf565b9050919050565b6000606082019050611c1760008301866118c5565b611c2460208301856118c5565b611c3160408301846118c5565b949350505050565b600081519050611c4881611758565b92915050565b600060208284031215611c6457611c63611744565b5b6000611c7284828501611c39565b91505092915050565b6000819050919050565b611c8e81611c7b565b82525050565b611c9d8161174e565b82525050565b600061ffff82169050919050565b611cba81611ca3565b82525050565b600063ffffffff82169050919050565b611cd981611cc0565b82525050565b600081519050919050565b600082825260208201905092915050565b60005b83811015611d19578082015181840152602081019050611cfe565b60008484015250505050565b6000601f19601f8301169050919050565b6000611d4182611cdf565b611d4b8185611cea565b9350611d5b818560208601611cfb565b611d6481611d25565b840191505092915050565b600060c083016000830151611d876000860182611c85565b506020830151611d9a6020860182611c94565b506040830151611dad6040860182611cb1565b506060830151611dc06060860182611cd0565b506080830151611dd36080860182611cd0565b5060a083015184820360a0860152611deb8282611d36565b9150508091505092915050565b60006020820190508181036000830152611e128184611d6f565b905092915050565b7f4e487b7100000000000000000000000000000000000000000000000000000000600052603260045260246000fd5b7f4e487b7100000000000000000000000000000000000000000000000000000000600052601260045260246000fd5b6000611e838261174e565b9150611e8e8361174e565b925082611e9e57611e9d611e49565b5b828206905092915050565b7f4f6e6c792063616c6c61626c65206279206f776e657200000000000000000000600082015250565b6000611edf601683611ab6565b9150611eea82611ea9565b602082019050919050565b60006020820190508181036000830152611f0e81611ed2565b9050919050565b7f4e487b7100000000000000000000000000000000000000000000000000000000600052604160045260246000fd5b6000611f4f8261174e565b91507fffffffffffffffffffffffffffffffffffffffffffffffffffffffffffffffff8203611f8157611f80611b33565b5b600182019050919050565b6000611f978261174e565b9150611fa28361174e565b9250828202611fb08161174e565b91508282048414831517611fc757611fc6611b33565b5b5092915050565b6000604082019050611fe360008301856118c5565b611ff06020830184611889565b9392505050565b61200081611a51565b82525050565b60208201600082015161201c6000850182611ff7565b50505050565b60006020820190506120376000830184612006565b92915050565b7f43616e6e6f74207472616e7366657220746f2073656c66000000000000000000600082015250565b6000612073601783611ab6565b915061207e8261203d565b602082019050919050565b600060208201905081810360008301526120a281612066565b905091905056fea264697066735822122038a7f18fc155c19e276f84eb0355dc2557163228606e887419e114a869d7ec1e64736f6c634300081b0033",
  "linkReferences": {},
  "deployedLinkReferences": {}
}